:02000000DF2EF1
:10000800FF00030E8301D7000A08D6008A01700892
:10001800A3007108A20083160C0883120C05F100D6
:10002800F11C2728FD308C050130CE02031CCF03BC
:1000380000304F06031D222800304E06031D2728D6
:10004800FD3083168C0583122308F0002208F10086
:0E00580056088A00570E8300FF0E7F0E090027
:0E006600F201F101F001F801F3010030080091
:08007400FA1FF213003008002E
:10007C007B15FB1F48280130F300F201F101F00160
:08008C00FA0DF20CFF30080030
:10009400FB14FB1F5428FF30F300F200F100F000C2
:0800A400FA0DF20CFF30080018
:1000AC007B14FB1F6128F201FA1FFF30F200F100F4
:0A00BC00F000FA0DF20CFF3008000E
:1000C600710DF80DF90D7408F8027508031C750F0B
:1000D600F902F00DF10D0F30FC00710DF80DF90D60
:1000E6007408701C7C28F8027508031C750FF90249
:1000F6008128F80775080318750FF907F00DF10D3B
:10010600FC0B702870188D287408F80775080318FA
:08011600750FF9070000080055
:06011E00FB15FF30080094
:10012400831203135B08CE005C08CF007D30831676
:100134009200023083129200910183168C14C03015
:100144008B04831212154F08003C031DAB284E0884
:0A015400003C0318AE28A52808009F
:10015E00A1017208031DC4287108F2007008F10095
:10016E00F001A1157208031DC4287108F200F101F7
:10017E00A111211672080319D2282108F302031DBA
:10018E00031CD6280310F21BDA28F00DF10DF20D28
:10019E00F30BCA28D6280130FC003320DD280230AC
:0E01AE00FC003E20DD280430FC003A20080052
:1001BC0083120313F801F9011030FC00710DF80DD6
:1001CC00F90D7408F8027508031C750FF902031871
:1001DC00F6287408F80775080318750FF90703104B
:0A01EC00F00DF10DFC0BE4280800F3
:1001F6004030831203139F001F141F151F1D04296F
:1002060001290130DB000030DC0092201E08F100DD
:0E021600F00183161E08F0040030F104080009
:1002240083120313FB01FA01F901F801A001730D14
:10023400F80D7408F8027508031C750FF9027608A6
:10024400031C760FFA027708031C770FFB020001E8
:10025400031C0130A002F30D0730FC00730DF80DF0
:10026400F90DFA0DFB0DA00D7408731C4B29F8024F
:100274007508031C750FF9027608031C760FFA0241
:100284007708031C770FFB020001031C0130A00256
:100294005C29F80775080318750FF9077608031821
:1002A400760FFA0777080318770FFB070001031886
:1002B4000130A007F30DFC0B3029720DF80DF90D78
:1002C400FA0DFB0DA00D7408731C7A29F802750849
:1002D400031C750FF9027608031C760FFA027708DF
:1002E400031C770FFB020001031C0130A0028B29C1
:1002F400F80775080318750FF90776080318760FC1
:10030400FA0777080318770FFB0700010318013079
:10031400A007F20D0730FC00720DF80DF90DFA0D6F
:10032400FB0DA00D7408721CA929F8027508031CA2
:10033400750FF9027608031C760FFA027708031C7E
:10034400770FFB020001031C0130A002BA29F80751
:1003540075080318750FF90776080318760FFA075E
:1003640077080318770FFB07000103180130A00773
:10037400F20DFC0B8E29710DF80DF90DFA0DFB0D24
:10038400A00D7408721CD829F8027508031C750F97
:10039400F9027608031C760FFA027708031C770F1C
:1003A400FB020001031C0130A002E929F8077508CB
:1003B4000318750FF90776080318760FFA077708FC
:1003C4000318770FFB07000103180130A007F10D94
:1003D4000730FC00710DF80DF90DFA0DFB0DA00DA1
:1003E4007408711C072AF8027508031C750FF902BA
:1003F4007608031C760FFA027708031C770FFB02BA
:100404000001031C0130A002182AF807750803181C
:10041400750FF90776080318760FFA07770803189B
:10042400770FFB07000103180130A007F10DFC0B47
:10043400EC29700DF80DF90DFA0DFB0DA00D7408E3
:10044400711C362AF8027508031C750FF902760828
:10045400031C760FFA027708031C770FFB020001D6
:10046400031C0130A002472AF80775080318750F0A
:10047400F90776080318760FFA0777080318770F39
:10048400FB07000103180130A007F00D0730FC0042
:10049400700DF80DF90DFA0DFB0DA00D7408701C0C
:1004A400652AF8027508031C750FF9027608031C07
:1004B400760FFA027708031C770FFB020001031C76
:1004C4000130A002762AF80775080318750FF9079A
:1004D40076080318760FFA0777080318770FFB07D7
:1004E400000103180130A007F00DFC0B4A2A701814
:1004F400892A7408F80775080318750FF907760830
:100504000318760FFA0777080318770FFB0708001C
:10051400831203132230FC00F801F901FA01FB01F4
:10052400FC030319C02A0310FB0CFA0CF90CF80C99
:10053400F30CF20CF10CF00C031C922AFC030319CB
:10054400B22A7408F80775080318750FF9077608B6
:100554000318760FFA0777080318770FFB07962A14
:100564007408F80775080318750FF9077608031857
:0E057400760FFA0777080318770FFB070800C9
:1005820083120313FB01FA01F9018030F800F10C28
:10059200F00C031CD52A7408F90775080318750FA7
:1005A200FA070318FB0A0310F01FDD2A7408FA0782
:1005B20075080318750FFB07FB0CFA0CF90CF80C05
:1005C200031CC82A7B08F3007A08F2007908F100BC
:0605D2007808F0000800AB
:1005D800831203137408003A031D072B7508003AA9
:1005E800031D072B7608003A031D072B7708003AEE
:1005F800031D072BFF30F000FF30F1007F30F200C1
:10060800FF30F300A22B8312031377080319962BEC
:1006180073080319992B720876068039FA00F217C5
:10062800F617A1017208F8007108FC007008FD00B7
:100638007408FD027508031C750FFC027608031C7C
:10064800760FF802F801FC01FD01031C322B0310A0
:10065800F20CF10CF00CF80C0130A1007708F30251
:10066800031C3C2B7E302107F30703189C2B412BDE
:100678007E302107F307031C9F2B1830FA07FD0D66
:10068800FC0DF80DF00DF10DF20DA10D7408F0023E
:100698007508031C750FF1027608031C760FF20229
:1006A800760DA104211C5A2B7D14652B7408F007C4
:1006B80075080318750FF10776080318760AF2070C
:1006C8007D10FA031F307A05031D432B7B1B7D1C0D
:1006D8008C2B0310F00DF10DF20DA10D7408F00232
:1006E8007508031C750FF1027608031C760FF202D9
:1006F800760D21040139FD070318FC0A0319F80ACD
:10070800031D8C2BF80CFC0CFD0CF30A03199C2B15
:10071800FA1FF8137808F2007C08F1007D08F00051
:100728000030A12B01308F20A12B02303320A12BC8
:0E07380004304A20A12B08303E2000000800AB
:10074600831203137008F8007108F000F101F2013A
:10075600F301FB01FC019630F300FA017008F10089
:0C0766007808F000F801F201AF20080054
:1007720083120313FB01FC01FA0173080319F82B1E
:10078200F2178E30F302F31BC92B0319C92BFB2B73
:10079200F309F30A08307302031CDE2BF300F10D98
:1007A2007208F100F20108307302031CDE2BF10D16
:1007B200F1017308031D0310E62B73080319E62BDE
:1007C2000310F20CF10CF30BE12B7B1B711CF02BD1
:1007D200031CF02BF10A0319F20AF21B072CFA1F71
:1007E2000A2CF209F109F10A0319F20A0A2CF201A0
:1007F200F1010A2C7B14FB1F0D2CF201FA1F0D2CA8
:10080200FF30F200F100FA0DF20C0D2C0130FC0069
:100812000F2C0030FC000F2CFF30FC00FC080319E9
:0E082200132C56207108F0007208F100080037
:10083000831203137408003A031D272C7508003A2D
:10084000031D272CFF30F0007F30F100802C831235
:100850000313FD01F901F801710870040319003454
:1008600071087506FA00FA1BFD09FB01F51F3D2C06
:10087000F409F509F40A0319F50AF11F442CF009EB
:10088000F109F00A0319F10A71087504FA00FA1B5C
:10089000592C63207B186C2CFD1F0034F009F109E2
:1008A000F00A0319F10AF809F909F80A0319F90A13
:1008B0000034F51F682CF11B642C7108F9007008D6
:1008C000F800F101F0014C2CF101F001F00A0034C4
:1008D000F109F009FB0A492CF80A0319F90A74080E
:1008E0007802031D4C2C75087902031D4C2CF9016C
:1008F000F801F00A0319F10AF11F4C2C0000FF3433
:020900000800ED
:10090200FB2070088312A4007108A500B830F4001F
:100912000B30F500C122A3230030F400C030F500F3
:100922007F30F6008830F700EC22B9237008A80067
:060932007108A900080095
:1009380083120313B201B301BE01BF01C201C30197
:100948000030D91BFF30F000F10070087104031962
:10095800DF2C5809F0005909F100F00A0319F10ACF
:100968007008D8007108D9007008B2007108B30087
:1009780000303306031DC22C003032060319D52C73
:100988000A30F4000030F5003208F0003308F100B6
:1009980018247008B2007108B300BE0A0319BF0A10
:1009A800BC2C2D30B400BE0A0319BF0A0130C200A6
:1009B8000030C300FC2C5808B2005908B3000030BE
:1009C8003306031DE92C003032060319FC2C0A30CB
:1009D800F4000030F5003208F0003308F100182464
:1009E8007008B2007108B300BE0A0319BF0AE32CED
:1009F80001303E02C0000030031C013E3F02C1002E
:100A08005808B2005908B30080304106F000803021
:100A180043067002031D122D42084002031C3C2DA0
:100A28004008343EDA000A30F4000030F50032089D
:100A3800F0003308F10018247808F0007908F10074
:100A48003030F0075A088400700880000A30F4003B
:100A58000030F5003208F0003308F100182470085F
:100A6800B2007108B3000130C002031CC103082D95
:020A7800080074
:100A7A00831603139818422D3D2D831258089900A6
:020A8A00080062
:100A8C00831203135808D2005908D3008F018E012A
:100A9C0080305906F00080307002031D572D103045
:100AAC00580203186B2D08140A30DB000030DC00F0
:100ABC009220FE3088058818642D612D1930900025
:100ACC00881C692D662D183090008030F000803025
:100ADC0053067002031D742D52080F3C0318882D09
:100AEC0008150A30DB000030DC009220FB30880552
:100AFC008819812D7E2D19309000881D862D832D0F
:100B0C0018309000B1011008B0000F08AF00AE0112
:100B1C000E08AE040030AF040030B000B1008F01FD
:100B2C008E012E08F0002F08F1003008F200310879
:100B3C00F3002230F400F501F601F7018A22E830C7
:100B4C00F4000330F500F601F70112217008F400EF
:100B5C007108F5007208F6007308F700F70CF60C34
:100B6C00F50CF40CF7137408D4007508D500740850
:100B7C002602F0007508031C013E2702F1006430C8
:100B8C00F4000030F500C1221230F4000030F50002
:040B9C00DE2008004F
:0E0BA0008312031351088A00500882000800D7
:100BAE00FF3083160313850083128501831685019A
:100BBE0086010A3088000F308100C4309F008312F6
:100BCE0097010816803083168700203098009030E9
:100BDE00831298000C30831699002C308312DB00A0
:080BEE000130DC009220080038
:100BF6000F3083120313D8000030D9004625700841
:100C0600AC007108AD001030D8000030D900462580
:100C16007008AA007108AB0081247008C60071082C
:100C2600C70045082B02031D1A2E44082A02031882
:100C3600272E2D084902031D222E2C0848020318D0
:100C4600272EEF308805392E2B084D02031D2D2E39
:100C56002A084C02031C382E49082D02031D352E86
:100C660048082C02031C382E392E081647084B025A
:100C7600031D3F2E46084A02031C432E8816452EA6
:100C8600DF3088052C08D8002D08D9009C24323086
:100C9600DB000030DC0092200A30D8003D256C30A5
:100CA600D8003D256530D8003D257630D8003D2555
:100CB6006530D8003D256C30D8003D253130D80050
:100CC6003D253A30D8003D252030D8003D25340852
:100CD600D8003D253508D8003D253230DB000030F0
:100CE600DC0092202A08D8002B08D9009C24323038
:100CF600DB000030DC0092200A30D8003D256C3045
:100D0600D8003D256530D8003D257630D8003D25F4
:100D16006530D8003D256C30D8003D253230D800EE
:100D26003D253A30D8003D252030D8003D253408F1
:100D3600D8003D253508D8003D253230DB0000308F
:100D4600DC0092204608D8004708D9009C2432309F
:100D5600DB000030DC0092200A30D8003D257430DC
:100D6600D8003D256530D8003D256D30D8003D259D
:100D76007030D8003D253A30D8003D252030D800C7
:100D86003D253408D8003D253508D8003D250A30D4
:100D9600D8003D253230DB000030DC009220080010
:100DA600D0258A110A128000840AD00A0319D10AB2
:080DB600F003031DD32E080019
:0C0DBE001427D725FB256300E12EE42E4E
:100E2800243084002A3083120313F000EA30D00003
:080E38000630D100D3260800AA
:040DD40000340034B3
:040DD800123400349D
:040DDC0000340034AB
:040DE00000340034A7
:040DE40000340034A3
:080DE800003400340034003433
:040DF0000034003497
:100DF400003400340034003400340034003400344F
:040E04000034003482
:040E0800003400347E
:040E0C00003400347A
:040E10000034003476
:040E14003234003440
:040E1800003400346E
:040E1C001434003456
:040E20001434003452
:040E24005034003412
:02400E004A2F37
:00000001FF
